{
	"_format": "hh-sol-artifact-1",
	"contractName": "cartoonNft",
	"sourceName": "contracts/cartoonNft.sol",
	"abi": [
		{
			"inputs": [],
			"stateMutability": "nonpayable",
			"type": "constructor"
		},
		{
			"inputs": [],
			"name": "ApprovalCallerNotOwnerNorApproved",
			"type": "error"
		},
		{
			"inputs": [],
			"name": "ApprovalQueryForNonexistentToken",
			"type": "error"
		},
		{
			"inputs": [],
			"name": "ApprovalToCurrentOwner",
			"type": "error"
		},
		{
			"inputs": [],
			"name": "ApproveToCaller",
			"type": "error"
		},
		{
			"inputs": [],
			"name": "BalanceQueryForZeroAddress",
			"type": "error"
		},
		{
			"inputs": [],
			"name": "MintToZeroAddress",
			"type": "error"
		},
		{
			"inputs": [],
			"name": "MintZeroQuantity",
			"type": "error"
		},
		{
			"inputs": [],
			"name": "OwnerQueryForNonexistentToken",
			"type": "error"
		},
		{
			"inputs": [],
			"name": "TransferCallerNotOwnerNorApproved",
			"type": "error"
		},
		{
			"inputs": [],
			"name": "TransferFromIncorrectOwner",
			"type": "error"
		},
		{
			"inputs": [],
			"name": "TransferToNonERC721ReceiverImplementer",
			"type": "error"
		},
		{
			"inputs": [],
			"name": "TransferToZeroAddress",
			"type": "error"
		},
		{
			"inputs": [],
			"name": "URIQueryForNonexistentToken",
			"type": "error"
		},
		{
			"anonymous": false,
			"inputs": [
				{
					"indexed": true,
					"internalType": "address",
					"name": "owner",
					"type": "address"
				},
				{
					"indexed": true,
					"internalType": "address",
					"name": "approved",
					"type": "address"
				},
				{
					"indexed": true,
					"internalType": "uint256",
					"name": "tokenId",
					"type": "uint256"
				}
			],
			"name": "Approval",
			"type": "event"
		},
		{
			"anonymous": false,
			"inputs": [
				{
					"indexed": true,
					"internalType": "address",
					"name": "owner",
					"type": "address"
				},
				{
					"indexed": true,
					"internalType": "address",
					"name": "operator",
					"type": "address"
				},
				{
					"indexed": false,
					"internalType": "bool",
					"name": "approved",
					"type": "bool"
				}
			],
			"name": "ApprovalForAll",
			"type": "event"
		},
		{
			"anonymous": false,
			"inputs": [
				{
					"indexed": true,
					"internalType": "address",
					"name": "previousOwner",
					"type": "address"
				},
				{
					"indexed": true,
					"internalType": "address",
					"name": "newOwner",
					"type": "address"
				}
			],
			"name": "OwnershipTransferred",
			"type": "event"
		},
		{
			"anonymous": false,
			"inputs": [
				{
					"indexed": true,
					"internalType": "address",
					"name": "from",
					"type": "address"
				},
				{
					"indexed": true,
					"internalType": "address",
					"name": "to",
					"type": "address"
				},
				{
					"indexed": true,
					"internalType": "uint256",
					"name": "tokenId",
					"type": "uint256"
				}
			],
			"name": "Transfer",
			"type": "event"
		},
		{
			"inputs": [],
			"name": "MAX_SUPPLY",
			"outputs": [
				{
					"internalType": "uint256",
					"name": "",
					"type": "uint256"
				}
			],
			"stateMutability": "view",
			"type": "function"
		},
		{
			"inputs": [],
			"name": "PRICE",
			"outputs": [
				{
					"internalType": "uint256",
					"name": "",
					"type": "uint256"
				}
			],
			"stateMutability": "view",
			"type": "function"
		},
		{
			"inputs": [],
			"name": "_baseExtension",
			"outputs": [
				{
					"internalType": "string",
					"name": "",
					"type": "string"
				}
			],
			"stateMutability": "view",
			"type": "function"
		},
		{
			"inputs": [],
			"name": "_baseTokenURI",
			"outputs": [
				{
					"internalType": "string",
					"name": "",
					"type": "string"
				}
			],
			"stateMutability": "view",
			"type": "function"
		},
		{
			"inputs": [],
			"name": "_freeMintActive",
			"outputs": [
				{
					"internalType": "bool",
					"name": "",
					"type": "bool"
				}
			],
			"stateMutability": "view",
			"type": "function"
		},
		{
			"inputs": [],
			"name": "_presaleActive",
			"outputs": [
				{
					"internalType": "bool",
					"name": "",
					"type": "bool"
				}
			],
			"stateMutability": "view",
			"type": "function"
		},
		{
			"inputs": [],
			"name": "_publicMintActive",
			"outputs": [
				{
					"internalType": "bool",
					"name": "",
					"type": "bool"
				}
			],
			"stateMutability": "view",
			"type": "function"
		},
		{
			"inputs": [
				{
					"internalType": "address",
					"name": "",
					"type": "address"
				}
			],
			"name": "allowList",
			"outputs": [
				{
					"internalType": "bool",
					"name": "",
					"type": "bool"
				}
			],
			"stateMutability": "view",
			"type": "function"
		},
		{
			"inputs": [
				{
					"internalType": "address",
					"name": "to",
					"type": "address"
				},
				{
					"internalType": "uint256",
					"name": "tokenId",
					"type": "uint256"
				}
			],
			"name": "approve",
			"outputs": [],
			"stateMutability": "nonpayable",
			"type": "function"
		},
		{
			"inputs": [
				{
					"internalType": "address",
					"name": "owner",
					"type": "address"
				}
			],
			"name": "balanceOf",
			"outputs": [
				{
					"internalType": "uint256",
					"name": "",
					"type": "uint256"
				}
			],
			"stateMutability": "view",
			"type": "function"
		},
		{
			"inputs": [
				{
					"internalType": "uint256",
					"name": "quantity",
					"type": "uint256"
				}
			],
			"name": "freeMint",
			"outputs": [],
			"stateMutability": "payable",
			"type": "function"
		},
		{
			"inputs": [
				{
					"internalType": "bool",
					"name": "isActive",
					"type": "bool"
				}
			],
			"name": "freeMintActive",
			"outputs": [],
			"stateMutability": "nonpayable",
			"type": "function"
		},
		{
			"inputs": [
				{
					"internalType": "uint256",
					"name": "tokenId",
					"type": "uint256"
				}
			],
			"name": "getApproved",
			"outputs": [
				{
					"internalType": "address",
					"name": "",
					"type": "address"
				}
			],
			"stateMutability": "view",
			"type": "function"
		},
		{
			"inputs": [
				{
					"internalType": "address",
					"name": "owner",
					"type": "address"
				},
				{
					"internalType": "address",
					"name": "operator",
					"type": "address"
				}
			],
			"name": "isApprovedForAll",
			"outputs": [
				{
					"internalType": "bool",
					"name": "",
					"type": "bool"
				}
			],
			"stateMutability": "view",
			"type": "function"
		},
		{
			"inputs": [],
			"name": "maxNftPerAddress",
			"outputs": [
				{
					"internalType": "uint256",
					"name": "",
					"type": "uint256"
				}
			],
			"stateMutability": "view",
			"type": "function"
		},
		{
			"inputs": [],
			"name": "maxNftPerTx",
			"outputs": [
				{
					"internalType": "uint256",
					"name": "",
					"type": "uint256"
				}
			],
			"stateMutability": "view",
			"type": "function"
		},
		{
			"inputs": [],
			"name": "name",
			"outputs": [
				{
					"internalType": "string",
					"name": "",
					"type": "string"
				}
			],
			"stateMutability": "view",
			"type": "function"
		},
		{
			"inputs": [],
			"name": "owner",
			"outputs": [
				{
					"internalType": "address",
					"name": "",
					"type": "address"
				}
			],
			"stateMutability": "view",
			"type": "function"
		},
		{
			"inputs": [
				{
					"internalType": "uint256",
					"name": "tokenId",
					"type": "uint256"
				}
			],
			"name": "ownerOf",
			"outputs": [
				{
					"internalType": "address",
					"name": "",
					"type": "address"
				}
			],
			"stateMutability": "view",
			"type": "function"
		},
		{
			"inputs": [
				{
					"internalType": "uint256",
					"name": "quantity",
					"type": "uint256"
				}
			],
			"name": "preSaleMint",
			"outputs": [],
			"stateMutability": "payable",
			"type": "function"
		},
		{
			"inputs": [
				{
					"internalType": "bool",
					"name": "isActive",
					"type": "bool"
				}
			],
			"name": "presaleActive",
			"outputs": [],
			"stateMutability": "nonpayable",
			"type": "function"
		},
		{
			"inputs": [
				{
					"internalType": "bool",
					"name": "isActive",
					"type": "bool"
				}
			],
			"name": "publicMintActive",
			"outputs": [],
			"stateMutability": "nonpayable",
			"type": "function"
		},
		{
			"inputs": [
				{
					"internalType": "uint256",
					"name": "quantity",
					"type": "uint256"
				}
			],
			"name": "publicSaleMint",
			"outputs": [],
			"stateMutability": "payable",
			"type": "function"
		},
		{
			"inputs": [],
			"name": "renounceOwnership",
			"outputs": [],
			"stateMutability": "nonpayable",
			"type": "function"
		},
		{
			"inputs": [
				{
					"internalType": "address",
					"name": "from",
					"type": "address"
				},
				{
					"internalType": "address",
					"name": "to",
					"type": "address"
				},
				{
					"internalType": "uint256",
					"name": "tokenId",
					"type": "uint256"
				}
			],
			"name": "safeTransferFrom",
			"outputs": [],
			"stateMutability": "nonpayable",
			"type": "function"
		},
		{
			"inputs": [
				{
					"internalType": "address",
					"name": "from",
					"type": "address"
				},
				{
					"internalType": "address",
					"name": "to",
					"type": "address"
				},
				{
					"internalType": "uint256",
					"name": "tokenId",
					"type": "uint256"
				},
				{
					"internalType": "bytes",
					"name": "_data",
					"type": "bytes"
				}
			],
			"name": "safeTransferFrom",
			"outputs": [],
			"stateMutability": "nonpayable",
			"type": "function"
		},
		{
			"inputs": [
				{
					"internalType": "address",
					"name": "addr",
					"type": "address"
				}
			],
			"name": "setAllowance",
			"outputs": [],
			"stateMutability": "nonpayable",
			"type": "function"
		},
		{
			"inputs": [
				{
					"internalType": "address",
					"name": "operator",
					"type": "address"
				},
				{
					"internalType": "bool",
					"name": "approved",
					"type": "bool"
				}
			],
			"name": "setApprovalForAll",
			"outputs": [],
			"stateMutability": "nonpayable",
			"type": "function"
		},
		{
			"inputs": [
				{
					"internalType": "string",
					"name": "baseURI",
					"type": "string"
				}
			],
			"name": "setBaseURI",
			"outputs": [],
			"stateMutability": "nonpayable",
			"type": "function"
		},
		{
			"inputs": [
				{
					"internalType": "bytes4",
					"name": "interfaceId",
					"type": "bytes4"
				}
			],
			"name": "supportsInterface",
			"outputs": [
				{
					"internalType": "bool",
					"name": "",
					"type": "bool"
				}
			],
			"stateMutability": "view",
			"type": "function"
		},
		{
			"inputs": [],
			"name": "symbol",
			"outputs": [
				{
					"internalType": "string",
					"name": "",
					"type": "string"
				}
			],
			"stateMutability": "view",
			"type": "function"
		},
		{
			"inputs": [
				{
					"internalType": "uint256",
					"name": "tokenId",
					"type": "uint256"
				}
			],
			"name": "tokenURI",
			"outputs": [
				{
					"internalType": "string",
					"name": "",
					"type": "string"
				}
			],
			"stateMutability": "view",
			"type": "function"
		},
		{
			"inputs": [],
			"name": "totalSupply",
			"outputs": [
				{
					"internalType": "uint256",
					"name": "",
					"type": "uint256"
				}
			],
			"stateMutability": "view",
			"type": "function"
		},
		{
			"inputs": [
				{
					"internalType": "address",
					"name": "from",
					"type": "address"
				},
				{
					"internalType": "address",
					"name": "to",
					"type": "address"
				},
				{
					"internalType": "uint256",
					"name": "tokenId",
					"type": "uint256"
				}
			],
			"name": "transferFrom",
			"outputs": [],
			"stateMutability": "nonpayable",
			"type": "function"
		},
		{
			"inputs": [
				{
					"internalType": "address",
					"name": "newOwner",
					"type": "address"
				}
			],
			"name": "transferOwnership",
			"outputs": [],
			"stateMutability": "nonpayable",
			"type": "function"
		},
		{
			"inputs": [],
			"name": "withdraw",
			"outputs": [],
			"stateMutability": "nonpayable",
			"type": "function"
		}
	],
	"bytecode": "0x60a060405260146080908152506004600a556002600b556000600c60006101000a81548160ff0219169083151502179055506000600c60016101000a81548160ff0219169083151502179055506001600c60026101000a81548160ff0219169083151502179055506040518060400160405280600581526020017f2e6a736f6e000000000000000000000000000000000000000000000000000000815250600e9080519060200190620000b4929190620002aa565b50348015620000c257600080fd5b506040518060400160405280600b81526020017f636172746f6f6e4e6674730000000000000000000000000000000000000000008152506040518060400160405280600481526020017f434e4654000000000000000000000000000000000000000000000000000000008152506200014f62000143620001d960201b60201c565b620001e160201b60201c565b816003908051906020019062000167929190620002aa565b50806004908051906020019062000180929190620002aa565b5062000191620002a560201b60201c565b60018190555050506001600981905550604051806060016040528060368152602001620045c360369139600d9080519060200190620001d2929190620002aa565b50620003bf565b600033905090565b60008060009054906101000a900473ffffffffffffffffffffffffffffffffffffffff169050816000806101000a81548173ffffffffffffffffffffffffffffffffffffffff021916908373ffffffffffffffffffffffffffffffffffffffff1602179055508173ffffffffffffffffffffffffffffffffffffffff168173ffffffffffffffffffffffffffffffffffffffff167f8be0079c531659141344cd1fd0a4f28419497f9722a3daafe3b4186f6b6457e060405160405180910390a35050565b600090565b828054620002b8906200035a565b90600052602060002090601f016020900481019282620002dc576000855562000328565b82601f10620002f757805160ff191683800117855562000328565b8280016001018555821562000328579182015b82811115620003275782518255916020019190600101906200030a565b5b5090506200033791906200033b565b5090565b5b80821115620003565760008160009055506001016200033c565b5090565b600060028204905060018216806200037357607f821691505b602082108114156200038a576200038962000390565b5b50919050565b7f4e487b7100000000000000000000000000000000000000000000000000000000600052602260045260246000fd5b6080516141d3620003f060003960008181610c050152818161124a0152818161159f0152611aba01526141d36000f3fe60806040526004361061020f5760003560e01c806375b3eff511610118578063b88d4fde116100a0578063e7053c751161006f578063e7053c7514610750578063e985e9c51461077b578063ee20e784146107b8578063f2fde38b146107e1578063ff86b46c1461080a5761020f565b8063b88d4fde14610694578063c2de8674146106bd578063c87b56dd146106e8578063cfc86f7b146107255761020f565b80638da5cb5b116100e75780638da5cb5b146105ce57806395d89b41146105f9578063a22cb46514610624578063b1645eb91461064d578063b3ab66b0146106785761020f565b806375b3eff5146105425780637835c6351461056b5780637c928fe9146105875780638d859f3e146105a35761020f565b80633ccfd60b1161019b57806355f804b31161016a57806355f804b31461045d5780636352211e146104865780636b0a1176146104c357806370a08231146104ee578063715018a61461052b5761020f565b80633ccfd60b146103c957806342842e0e146103e057806347a3320a1461040957806347bf27f0146104345761020f565b806318160ddd116101e257806318160ddd146102e257806323b872dd1461030d5780632672c902146103365780632848aeaf1461036157806332cb6b0c1461039e5761020f565b806301ffc9a71461021457806306fdde0314610251578063081812fc1461027c578063095ea7b3146102b9575b600080fd5b34801561022057600080fd5b5061023b6004803603810190610236919061351e565b610833565b6040516102489190613900565b60405180910390f35b34801561025d57600080fd5b50610266610915565b604051610273919061391b565b60405180910390f35b34801561028857600080fd5b506102a3600480360381019061029e91906135b5565b6109a7565b6040516102b09190613899565b60405180910390f35b3480156102c557600080fd5b506102e060048036038101906102db91906134b9565b610a23565b005b3480156102ee57600080fd5b506102f7610b2e565b6040516103049190613add565b60405180910390f35b34801561031957600080fd5b50610334600480360381019061032f91906133b3565b610b45565b005b34801561034257600080fd5b5061034b610b55565b604051610358919061391b565b60405180910390f35b34801561036d57600080fd5b506103886004803603810190610383919061334e565b610be3565b6040516103959190613900565b60405180910390f35b3480156103aa57600080fd5b506103b3610c03565b6040516103c09190613add565b60405180910390f35b3480156103d557600080fd5b506103de610c27565b005b3480156103ec57600080fd5b50610407600480360381019061040291906133b3565b610cf2565b005b34801561041557600080fd5b5061041e610d12565b60405161042b9190613add565b60405180910390f35b34801561044057600080fd5b5061045b600480360381019061045691906134f5565b610d18565b005b34801561046957600080fd5b50610484600480360381019061047f9190613570565b610db1565b005b34801561049257600080fd5b506104ad60048036038101906104a891906135b5565b610e43565b6040516104ba9190613899565b60405180910390f35b3480156104cf57600080fd5b506104d8610e59565b6040516104e59190613900565b60405180910390f35b3480156104fa57600080fd5b506105156004803603810190610510919061334e565b610e6c565b6040516105229190613add565b60405180910390f35b34801561053757600080fd5b50610540610f3c565b005b34801561054e57600080fd5b50610569600480360381019061056491906134f5565b610fc4565b005b610585600480360381019061058091906135b5565b61105d565b005b6105a1600480360381019061059c91906135b5565b6113b2565b005b3480156105af57600080fd5b506105b8611627565b6040516105c59190613add565b60405180910390f35b3480156105da57600080fd5b506105e3611632565b6040516105f09190613899565b60405180910390f35b34801561060557600080fd5b5061060e61165b565b60405161061b919061391b565b60405180910390f35b34801561063057600080fd5b5061064b6004803603810190610646919061347d565b6116ed565b005b34801561065957600080fd5b50610662611865565b60405161066f9190613900565b60405180910390f35b610692600480360381019061068d91906135b5565b611878565b005b3480156106a057600080fd5b506106bb60048036038101906106b69190613402565b611b42565b005b3480156106c957600080fd5b506106d2611bbe565b6040516106df9190613900565b60405180910390f35b3480156106f457600080fd5b5061070f600480360381019061070a91906135b5565b611bd1565b60405161071c919061391b565b60405180910390f35b34801561073157600080fd5b5061073a611c70565b604051610747919061391b565b60405180910390f35b34801561075c57600080fd5b50610765611cfe565b6040516107729190613add565b60405180910390f35b34801561078757600080fd5b506107a2600480360381019061079d9190613377565b611d04565b6040516107af9190613900565b60405180910390f35b3480156107c457600080fd5b506107df60048036038101906107da919061334e565b611d98565b005b3480156107ed57600080fd5b506108086004803603810190610803919061334e565b611e6f565b005b34801561081657600080fd5b50610831600480360381019061082c91906134f5565b611f67565b005b60007f80ac58cd000000000000000000000000000000000000000000000000000000007bffffffffffffffffffffffffffffffffffffffffffffffffffffffff1916827bffffffffffffffffffffffffffffffffffffffffffffffffffffffff191614806108fe57507f5b5e139f000000000000000000000000000000000000000000000000000000007bffffffffffffffffffffffffffffffffffffffffffffffffffffffff1916827bffffffffffffffffffffffffffffffffffffffffffffffffffffffff1916145b8061090e575061090d82612000565b5b9050919050565b60606003805461092490613d5c565b80601f016020809104026020016040519081016040528092919081815260200182805461095090613d5c565b801561099d5780601f106109725761010080835404028352916020019161099d565b820191906000526020600020905b81548152906001019060200180831161098057829003601f168201915b5050505050905090565b60006109b28261206a565b6109e8576040517fcf4700e400000000000000000000000000000000000000000000000000000000815260040160405180910390fd5b6007600083815260200190815260200160002060009054906101000a900473ffffffffffffffffffffffffffffffffffffffff169050919050565b6000610a2e82610e43565b90508073ffffffffffffffffffffffffffffffffffffffff168373ffffffffffffffffffffffffffffffffffffffff161415610a96576040517f943f7b8c00000000000000000000000000000000000000000000000000000000815260040160405180910390fd5b8073ffffffffffffffffffffffffffffffffffffffff16610ab56120b8565b73ffffffffffffffffffffffffffffffffffffffff1614158015610ae75750610ae581610ae06120b8565b611d04565b155b15610b1e576040517fcfb3b94200000000000000000000000000000000000000000000000000000000815260040160405180910390fd5b610b298383836120c0565b505050565b6000610b38612172565b6002546001540303905090565b610b50838383612177565b505050565b600e8054610b6290613d5c565b80601f0160208091040260200160405190810160405280929190818152602001828054610b8e90613d5c565b8015610bdb5780601f10610bb057610100808354040283529160200191610bdb565b820191906000526020600020905b815481529060010190602001808311610bbe57829003601f168201915b505050505081565b600f6020528060005260406000206000915054906101000a900460ff1681565b7f000000000000000000000000000000000000000000000000000000000000000081565b610c2f6120b8565b73ffffffffffffffffffffffffffffffffffffffff16610c4d611632565b73ffffffffffffffffffffffffffffffffffffffff1614610ca3576040517f08c379a0000000000000000000000000000000000000000000000000000000008152600401610c9a90613a1d565b60405180910390fd5b60004790503373ffffffffffffffffffffffffffffffffffffffff166108fc829081150290604051600060405180830381858888f19350505050158015610cee573d6000803e3d6000fd5b5050565b610d0d83838360405180602001604052806000815250611b42565b505050565b600a5481565b610d206120b8565b73ffffffffffffffffffffffffffffffffffffffff16610d3e611632565b73ffffffffffffffffffffffffffffffffffffffff1614610d94576040517f08c379a0000000000000000000000000000000000000000000000000000000008152600401610d8b90613a1d565b60405180910390fd5b80600c60016101000a81548160ff02191690831515021790555050565b610db96120b8565b73ffffffffffffffffffffffffffffffffffffffff16610dd7611632565b73ffffffffffffffffffffffffffffffffffffffff1614610e2d576040517f08c379a0000000000000000000000000000000000000000000000000000000008152600401610e2490613a1d565b60405180910390fd5b8181600d9190610e3e92919061314d565b505050565b6000610e4e8261262d565b600001519050919050565b600c60019054906101000a900460ff1681565b60008073ffffffffffffffffffffffffffffffffffffffff168273ffffffffffffffffffffffffffffffffffffffff161415610ed4576040517f8f4eb60400000000000000000000000000000000000000000000000000000000815260040160405180910390fd5b600660008373ffffffffffffffffffffffffffffffffffffffff1673ffffffffffffffffffffffffffffffffffffffff16815260200190815260200160002060000160009054906101000a900467ffffffffffffffff1667ffffffffffffffff169050919050565b610f446120b8565b73ffffffffffffffffffffffffffffffffffffffff16610f62611632565b73ffffffffffffffffffffffffffffffffffffffff1614610fb8576040517f08c379a0000000000000000000000000000000000000000000000000000000008152600401610faf90613a1d565b60405180910390fd5b610fc260006128bc565b565b610fcc6120b8565b73ffffffffffffffffffffffffffffffffffffffff16610fea611632565b73ffffffffffffffffffffffffffffffffffffffff1614611040576040517f08c379a000000000000000000000000000000000000000000000000000000000815260040161103790613a1d565b60405180910390fd5b80600c60026101000a81548160ff02191690831515021790555050565b600260095414156110a3576040517f08c379a000000000000000000000000000000000000000000000000000000000815260040161109a90613abd565b60405180910390fd5b60026009819055503373ffffffffffffffffffffffffffffffffffffffff163273ffffffffffffffffffffffffffffffffffffffff1614611119576040517f08c379a0000000000000000000000000000000000000000000000000000000008152600401611110906139bd565b60405180910390fd5b6000811161115c576040517f08c379a0000000000000000000000000000000000000000000000000000000008152600401611153906139dd565b60405180910390fd5b600c60019054906101000a900460ff166111ab576040517f08c379a00000000000000000000000000000000000000000000000000000000081526004016111a29061393d565b60405180910390fd5b600b548111156111f0576040517f08c379a00000000000000000000000000000000000000000000000000000000081526004016111e790613a9d565b60405180910390fd5b600a54816111fd33610e6c565b6112079190613b91565b1115611248576040517f08c379a000000000000000000000000000000000000000000000000000000000815260040161123f9061399d565b60405180910390fd5b7f000000000000000000000000000000000000000000000000000000000000000081611272610b2e565b61127c9190613b91565b11156112bd576040517f08c379a00000000000000000000000000000000000000000000000000000000081526004016112b4906139fd565b60405180910390fd5b348166b1a2bc2ec500006112d19190613c18565b14611311576040517f08c379a000000000000000000000000000000000000000000000000000000000815260040161130890613a7d565b60405180910390fd5b600f60003373ffffffffffffffffffffffffffffffffffffffff1673ffffffffffffffffffffffffffffffffffffffff16815260200190815260200160002060009054906101000a900460ff1661139d576040517f08c379a00000000000000000000000000000000000000000000000000000000081526004016113949061397d565b60405180910390fd5b6113a73382612980565b600160098190555050565b600260095414156113f8576040517f08c379a00000000000000000000000000000000000000000000000000000000081526004016113ef90613abd565b60405180910390fd5b60026009819055503373ffffffffffffffffffffffffffffffffffffffff163273ffffffffffffffffffffffffffffffffffffffff161461146e576040517f08c379a0000000000000000000000000000000000000000000000000000000008152600401611465906139bd565b60405180910390fd5b600081116114b1576040517f08c379a00000000000000000000000000000000000000000000000000000000081526004016114a8906139dd565b60405180910390fd5b600c60029054906101000a900460ff16611500576040517f08c379a00000000000000000000000000000000000000000000000000000000081526004016114f790613a3d565b60405180910390fd5b600b54811115611545576040517f08c379a000000000000000000000000000000000000000000000000000000000815260040161153c90613a9d565b60405180910390fd5b600a548161155233610e6c565b61155c9190613b91565b111561159d576040517f08c379a00000000000000000000000000000000000000000000000000000000081526004016115949061399d565b60405180910390fd5b7f0000000000000000000000000000000000000000000000000000000000000000816115c7610b2e565b6115d19190613b91565b1115611612576040517f08c379a0000000000000000000000000000000000000000000000000000000008152600401611609906139fd565b60405180910390fd5b61161c3382612980565b600160098190555050565b66b1a2bc2ec5000081565b60008060009054906101000a900473ffffffffffffffffffffffffffffffffffffffff16905090565b60606004805461166a90613d5c565b80601f016020809104026020016040519081016040528092919081815260200182805461169690613d5c565b80156116e35780601f106116b8576101008083540402835291602001916116e3565b820191906000526020600020905b8154815290600101906020018083116116c657829003601f168201915b5050505050905090565b6116f56120b8565b73ffffffffffffffffffffffffffffffffffffffff168273ffffffffffffffffffffffffffffffffffffffff16141561175a576040517fb06307db00000000000000000000000000000000000000000000000000000000815260040160405180910390fd5b80600860006117676120b8565b73ffffffffffffffffffffffffffffffffffffffff1673ffffffffffffffffffffffffffffffffffffffff16815260200190815260200160002060008473ffffffffffffffffffffffffffffffffffffffff1673ffffffffffffffffffffffffffffffffffffffff16815260200190815260200160002060006101000a81548160ff0219169083151502179055508173ffffffffffffffffffffffffffffffffffffffff166118146120b8565b73ffffffffffffffffffffffffffffffffffffffff167f17307eab39ab6107e8899845ad3d59bd9653f200f220920489ca2b5937696c31836040516118599190613900565b60405180910390a35050565b600c60009054906101000a900460ff1681565b600260095414156118be576040517f08c379a00000000000000000000000000000000000000000000000000000000081526004016118b590613abd565b60405180910390fd5b60026009819055503373ffffffffffffffffffffffffffffffffffffffff163273ffffffffffffffffffffffffffffffffffffffff1614611934576040517f08c379a000000000000000000000000000000000000000000000000000000000815260040161192b906139bd565b60405180910390fd5b60008111611977576040517f08c379a000000000000000000000000000000000000000000000000000000000815260040161196e906139dd565b60405180910390fd5b600c60009054906101000a900460ff166119c6576040517f08c379a00000000000000000000000000000000000000000000000000000000081526004016119bd90613a5d565b60405180910390fd5b348166b1a2bc2ec500006119da9190613c18565b1015611a1b576040517f08c379a0000000000000000000000000000000000000000000000000000000008152600401611a1290613a7d565b60405180910390fd5b600b54811115611a60576040517f08c379a0000000000000000000000000000000000000000000000000000000008152600401611a5790613a9d565b60405180910390fd5b600a5481611a6d33610e6c565b611a779190613b91565b1115611ab8576040517f08c379a0000000000000000000000000000000000000000000000000000000008152600401611aaf9061399d565b60405180910390fd5b7f000000000000000000000000000000000000000000000000000000000000000081611ae2610b2e565b611aec9190613b91565b1115611b2d576040517f08c379a0000000000000000000000000000000000000000000000000000000008152600401611b24906139fd565b60405180910390fd5b611b373382612980565b600160098190555050565b611b4d848484612177565b611b6c8373ffffffffffffffffffffffffffffffffffffffff1661299e565b8015611b815750611b7f848484846129c1565b155b15611bb8576040517fd1a57ed600000000000000000000000000000000000000000000000000000000815260040160405180910390fd5b50505050565b600c60029054906101000a900460ff1681565b6060611bdc8261206a565b611c12576040517fa14c4b5000000000000000000000000000000000000000000000000000000000815260040160405180910390fd5b6000611c1c612b21565b9050600081511415611c3d5760405180602001604052806000815250611c68565b80611c4784612bb3565b604051602001611c58929190613875565b6040516020818303038152906040525b915050919050565b600d8054611c7d90613d5c565b80601f0160208091040260200160405190810160405280929190818152602001828054611ca990613d5c565b8015611cf65780601f10611ccb57610100808354040283529160200191611cf6565b820191906000526020600020905b815481529060010190602001808311611cd957829003601f168201915b505050505081565b600b5481565b6000600860008473ffffffffffffffffffffffffffffffffffffffff1673ffffffffffffffffffffffffffffffffffffffff16815260200190815260200160002060008373ffffffffffffffffffffffffffffffffffffffff1673ffffffffffffffffffffffffffffffffffffffff16815260200190815260200160002060009054906101000a900460ff16905092915050565b611da06120b8565b73ffffffffffffffffffffffffffffffffffffffff16611dbe611632565b73ffffffffffffffffffffffffffffffffffffffff1614611e14576040517f08c379a0000000000000000000000000000000000000000000000000000000008152600401611e0b90613a1d565b60405180910390fd5b6001600f60008373ffffffffffffffffffffffffffffffffffffffff1673ffffffffffffffffffffffffffffffffffffffff16815260200190815260200160002060006101000a81548160ff02191690831515021790555050565b611e776120b8565b73ffffffffffffffffffffffffffffffffffffffff16611e95611632565b73ffffffffffffffffffffffffffffffffffffffff1614611eeb576040517f08c379a0000000000000000000000000000000000000000000000000000000008152600401611ee290613a1d565b60405180910390fd5b600073ffffffffffffffffffffffffffffffffffffffff168173ffffffffffffffffffffffffffffffffffffffff161415611f5b576040517f08c379a0000000000000000000000000000000000000000000000000000000008152600401611f529061395d565b60405180910390fd5b611f64816128bc565b50565b611f6f6120b8565b73ffffffffffffffffffffffffffffffffffffffff16611f8d611632565b73ffffffffffffffffffffffffffffffffffffffff1614611fe3576040517f08c379a0000000000000000000000000000000000000000000000000000000008152600401611fda90613a1d565b60405180910390fd5b80600c60006101000a81548160ff02191690831515021790555050565b60007f01ffc9a7000000000000000000000000000000000000000000000000000000007bffffffffffffffffffffffffffffffffffffffffffffffffffffffff1916827bffffffffffffffffffffffffffffffffffffffffffffffffffffffff1916149050919050565b600081612075612172565b11158015612084575060015482105b80156120b1575060056000838152602001908152602001600020600001601c9054906101000a900460ff16155b9050919050565b600033905090565b826007600084815260200190815260200160002060006101000a81548173ffffffffffffffffffffffffffffffffffffffff021916908373ffffffffffffffffffffffffffffffffffffffff160217905550818373ffffffffffffffffffffffffffffffffffffffff168273ffffffffffffffffffffffffffffffffffffffff167f8c5be1e5ebec7d5bd14f71427d1e84f3dd0314c0f7b2291e5b200ac8c7c3b92560405160405180910390a4505050565b600090565b60006121828261262d565b90508373ffffffffffffffffffffffffffffffffffffffff16816000015173ffffffffffffffffffffffffffffffffffffffff16146121ed576040517fa114810000000000000000000000000000000000000000000000000000000000815260040160405180910390fd5b60008473ffffffffffffffffffffffffffffffffffffffff1661220e6120b8565b73ffffffffffffffffffffffffffffffffffffffff16148061223d575061223c856122376120b8565b611d04565b5b80612282575061224b6120b8565b73ffffffffffffffffffffffffffffffffffffffff1661226a846109a7565b73ffffffffffffffffffffffffffffffffffffffff16145b9050806122bb576040517f59c896be00000000000000000000000000000000000000000000000000000000815260040160405180910390fd5b600073ffffffffffffffffffffffffffffffffffffffff168473ffffffffffffffffffffffffffffffffffffffff161415612322576040517fea553b3400000000000000000000000000000000000000000000000000000000815260040160405180910390fd5b61232f8585856001612d60565b61233b600084876120c0565b6001600660008773ffffffffffffffffffffffffffffffffffffffff1673ffffffffffffffffffffffffffffffffffffffff16815260200190815260200160002060000160008282829054906101000a900467ffffffffffffffff160392506101000a81548167ffffffffffffffff021916908367ffffffffffffffff1602179055506001600660008673ffffffffffffffffffffffffffffffffffffffff1673ffffffffffffffffffffffffffffffffffffffff16815260200190815260200160002060000160008282829054906101000a900467ffffffffffffffff160192506101000a81548167ffffffffffffffff021916908367ffffffffffffffff1602179055506000600560008581526020019081526020016000209050848160000160006101000a81548173ffffffffffffffffffffffffffffffffffffffff021916908373ffffffffffffffffffffffffffffffffffffffff160217905550428160000160146101000a81548167ffffffffffffffff021916908367ffffffffffffffff16021790555060006001850190506000600560008381526020019081526020016000209050600073ffffffffffffffffffffffffffffffffffffffff168160000160009054906101000a900473ffffffffffffffffffffffffffffffffffffffff1673ffffffffffffffffffffffffffffffffffffffff1614156125bb5760015482146125ba57878160000160006101000a81548173ffffffffffffffffffffffffffffffffffffffff021916908373ffffffffffffffffffffffffffffffffffffffff16021790555084602001518160000160146101000a81548167ffffffffffffffff021916908367ffffffffffffffff1602179055505b5b505050828473ffffffffffffffffffffffffffffffffffffffff168673ffffffffffffffffffffffffffffffffffffffff167fddf252ad1be2c89b69c2b068fc378daa952ba7f163c4a11628f55a4df523b3ef60405160405180910390a46126268585856001612d66565b5050505050565b6126356131d3565b600082905080612643612172565b11158015612652575060015481105b15612885576000600560008381526020019081526020016000206040518060600160405290816000820160009054906101000a900473ffffffffffffffffffffffffffffffffffffffff1673ffffffffffffffffffffffffffffffffffffffff1673ffffffffffffffffffffffffffffffffffffffff1681526020016000820160149054906101000a900467ffffffffffffffff1667ffffffffffffffff1667ffffffffffffffff16815260200160008201601c9054906101000a900460ff1615151515815250509050806040015161288357600073ffffffffffffffffffffffffffffffffffffffff16816000015173ffffffffffffffffffffffffffffffffffffffff16146127675780925050506128b7565b5b60011561288257818060019003925050600560008381526020019081526020016000206040518060600160405290816000820160009054906101000a900473ffffffffffffffffffffffffffffffffffffffff1673ffffffffffffffffffffffffffffffffffffffff1673ffffffffffffffffffffffffffffffffffffffff1681526020016000820160149054906101000a900467ffffffffffffffff1667ffffffffffffffff1667ffffffffffffffff16815260200160008201601c9054906101000a900460ff1615151515815250509050600073ffffffffffffffffffffffffffffffffffffffff16816000015173ffffffffffffffffffffffffffffffffffffffff161461287d5780925050506128b7565b612768565b5b505b6040517fdf2d9b4200000000000000000000000000000000000000000000000000000000815260040160405180910390fd5b919050565b60008060009054906101000a900473ffffffffffffffffffffffffffffffffffffffff169050816000806101000a81548173ffffffffffffffffffffffffffffffffffffffff021916908373ffffffffffffffffffffffffffffffffffffffff1602179055508173ffffffffffffffffffffffffffffffffffffffff168173ffffffffffffffffffffffffffffffffffffffff167f8be0079c531659141344cd1fd0a4f28419497f9722a3daafe3b4186f6b6457e060405160405180910390a35050565b61299a828260405180602001604052806000815250612d6c565b5050565b6000808273ffffffffffffffffffffffffffffffffffffffff163b119050919050565b60008373ffffffffffffffffffffffffffffffffffffffff1663150b7a026129e76120b8565b8786866040518563ffffffff1660e01b8152600401612a0994939291906138b4565b602060405180830381600087803b158015612a2357600080fd5b505af1925050508015612a5457506040513d601f19601f82011682018060405250810190612a519190613547565b60015b612ace573d8060008114612a84576040519150601f19603f3d011682016040523d82523d6000602084013e612a89565b606091505b50600081511415612ac6576040517fd1a57ed600000000000000000000000000000000000000000000000000000000815260040160405180910390fd5b805181602001fd5b63150b7a0260e01b7bffffffffffffffffffffffffffffffffffffffffffffffffffffffff1916817bffffffffffffffffffffffffffffffffffffffffffffffffffffffff191614915050949350505050565b6060600d8054612b3090613d5c565b80601f0160208091040260200160405190810160405280929190818152602001828054612b5c90613d5c565b8015612ba95780601f10612b7e57610100808354040283529160200191612ba9565b820191906000526020600020905b815481529060010190602001808311612b8c57829003601f168201915b5050505050905090565b60606000821415612bfb576040518060400160405280600181526020017f30000000000000000000000000000000000000000000000000000000000000008152509050612d5b565b600082905060005b60008214612c2d578080612c1690613dbf565b915050600a82612c269190613be7565b9150612c03565b60008167ffffffffffffffff811115612c6f577f4e487b7100000000000000000000000000000000000000000000000000000000600052604160045260246000fd5b6040519080825280601f01601f191660200182016040528015612ca15781602001600182028036833780820191505090505b5090505b60008514612d5457600182612cba9190613c72565b9150600a85612cc99190613e08565b6030612cd59190613b91565b60f81b818381518110612d11577f4e487b7100000000000000000000000000000000000000000000000000000000600052603260045260246000fd5b60200101907effffffffffffffffffffffffffffffffffffffffffffffffffffffffffffff1916908160001a905350600a85612d4d9190613be7565b9450612ca5565b8093505050505b919050565b50505050565b50505050565b612d798383836001612d7e565b505050565b60006001549050600073ffffffffffffffffffffffffffffffffffffffff168573ffffffffffffffffffffffffffffffffffffffff161415612dec576040517f2e07630000000000000000000000000000000000000000000000000000000000815260040160405180910390fd5b6000841415612e27576040517fb562e8dd00000000000000000000000000000000000000000000000000000000815260040160405180910390fd5b612e346000868387612d60565b83600660008773ffffffffffffffffffffffffffffffffffffffff1673ffffffffffffffffffffffffffffffffffffffff16815260200190815260200160002060000160008282829054906101000a900467ffffffffffffffff160192506101000a81548167ffffffffffffffff021916908367ffffffffffffffff16021790555083600660008773ffffffffffffffffffffffffffffffffffffffff1673ffffffffffffffffffffffffffffffffffffffff16815260200190815260200160002060000160088282829054906101000a900467ffffffffffffffff160192506101000a81548167ffffffffffffffff021916908367ffffffffffffffff160217905550846005600083815260200190815260200160002060000160006101000a81548173ffffffffffffffffffffffffffffffffffffffff021916908373ffffffffffffffffffffffffffffffffffffffff160217905550426005600083815260200190815260200160002060000160146101000a81548167ffffffffffffffff021916908367ffffffffffffffff160217905550600081905060008582019050838015612ffe5750612ffd8773ffffffffffffffffffffffffffffffffffffffff1661299e565b5b156130c4575b818773ffffffffffffffffffffffffffffffffffffffff16600073ffffffffffffffffffffffffffffffffffffffff167fddf252ad1be2c89b69c2b068fc378daa952ba7f163c4a11628f55a4df523b3ef60405160405180910390a461307360008884806001019550886129c1565b6130a9576040517fd1a57ed600000000000000000000000000000000000000000000000000000000815260040160405180910390fd5b808214156130045782600154146130bf57600080fd5b613130565b5b818060010192508773ffffffffffffffffffffffffffffffffffffffff16600073ffffffffffffffffffffffffffffffffffffffff167fddf252ad1be2c89b69c2b068fc378daa952ba7f163c4a11628f55a4df523b3ef60405160405180910390a4808214156130c5575b8160018190555050506131466000868387612d66565b5050505050565b82805461315990613d5c565b90600052602060002090601f01602090048101928261317b57600085556131c2565b82601f1061319457803560ff19168380011785556131c2565b828001600101855582156131c2579182015b828111156131c15782358255916020019190600101906131a6565b5b5090506131cf9190613216565b5090565b6040518060600160405280600073ffffffffffffffffffffffffffffffffffffffff168152602001600067ffffffffffffffff1681526020016000151581525090565b5b8082111561322f576000816000905550600101613217565b5090565b600061324661324184613b1d565b613af8565b90508281526020810184848401111561325e57600080fd5b613269848285613d1a565b509392505050565b60008135905061328081614141565b92915050565b60008135905061329581614158565b92915050565b6000813590506132aa8161416f565b92915050565b6000815190506132bf8161416f565b92915050565b600082601f8301126132d657600080fd5b81356132e6848260208601613233565b91505092915050565b60008083601f84011261330157600080fd5b8235905067ffffffffffffffff81111561331a57600080fd5b60208301915083600182028301111561333257600080fd5b9250929050565b60008135905061334881614186565b92915050565b60006020828403121561336057600080fd5b600061336e84828501613271565b91505092915050565b6000806040838503121561338a57600080fd5b600061339885828601613271565b92505060206133a985828601613271565b9150509250929050565b6000806000606084860312156133c857600080fd5b60006133d686828701613271565b93505060206133e786828701613271565b92505060406133f886828701613339565b9150509250925092565b6000806000806080858703121561341857600080fd5b600061342687828801613271565b945050602061343787828801613271565b935050604061344887828801613339565b925050606085013567ffffffffffffffff81111561346557600080fd5b613471878288016132c5565b91505092959194509250565b6000806040838503121561349057600080fd5b600061349e85828601613271565b92505060206134af85828601613286565b9150509250929050565b600080604083850312156134cc57600080fd5b60006134da85828601613271565b92505060206134eb85828601613339565b9150509250929050565b60006020828403121561350757600080fd5b600061351584828501613286565b91505092915050565b60006020828403121561353057600080fd5b600061353e8482850161329b565b91505092915050565b60006020828403121561355957600080fd5b6000613567848285016132b0565b91505092915050565b6000806020838503121561358357600080fd5b600083013567ffffffffffffffff81111561359d57600080fd5b6135a9858286016132ef565b92509250509250929050565b6000602082840312156135c757600080fd5b60006135d584828501613339565b91505092915050565b6135e781613ca6565b82525050565b6135f681613cb8565b82525050565b600061360782613b4e565b6136118185613b64565b9350613621818560208601613d29565b61362a81613ef5565b840191505092915050565b600061364082613b59565b61364a8185613b75565b935061365a818560208601613d29565b61366381613ef5565b840191505092915050565b600061367982613b59565b6136838185613b86565b9350613693818560208601613d29565b80840191505092915050565b60006136ac601b83613b75565b91506136b782613f06565b602082019050919050565b60006136cf602683613b75565b91506136da82613f2f565b604082019050919050565b60006136f2601683613b75565b91506136fd82613f7e565b602082019050919050565b6000613715601783613b75565b915061372082613fa7565b602082019050919050565b6000613738601e83613b75565b915061374382613fd0565b602082019050919050565b600061375b601c83613b75565b915061376682613ff9565b602082019050919050565b600061377e601283613b75565b915061378982614022565b602082019050919050565b60006137a1602083613b75565b91506137ac8261404b565b602082019050919050565b60006137c4601483613b75565b91506137cf82614074565b602082019050919050565b60006137e7601d83613b75565b91506137f28261409d565b602082019050919050565b600061380a600f83613b75565b9150613815826140c6565b602082019050919050565b600061382d601b83613b75565b9150613838826140ef565b602082019050919050565b6000613850601f83613b75565b915061385b82614118565b602082019050919050565b61386f81613d10565b82525050565b6000613881828561366e565b915061388d828461366e565b91508190509392505050565b60006020820190506138ae60008301846135de565b92915050565b60006080820190506138c960008301876135de565b6138d660208301866135de565b6138e36040830185613866565b81810360608301526138f581846135fc565b905095945050505050565b600060208201905061391560008301846135ed565b92915050565b600060208201905081810360008301526139358184613635565b905092915050565b600060208201905081810360008301526139568161369f565b9050919050565b60006020820190508181036000830152613976816136c2565b9050919050565b60006020820190508181036000830152613996816136e5565b9050919050565b600060208201905081810360008301526139b681613708565b9050919050565b600060208201905081810360008301526139d68161372b565b9050919050565b600060208201905081810360008301526139f68161374e565b9050919050565b60006020820190508181036000830152613a1681613771565b9050919050565b60006020820190508181036000830152613a3681613794565b9050919050565b60006020820190508181036000830152613a56816137b7565b9050919050565b60006020820190508181036000830152613a76816137da565b9050919050565b60006020820190508181036000830152613a96816137fd565b9050919050565b60006020820190508181036000830152613ab681613820565b9050919050565b60006020820190508181036000830152613ad681613843565b9050919050565b6000602082019050613af26000830184613866565b92915050565b6000613b02613b13565b9050613b0e8282613d8e565b919050565b6000604051905090565b600067ffffffffffffffff821115613b3857613b37613ec6565b5b613b4182613ef5565b9050602081019050919050565b600081519050919050565b600081519050919050565b600082825260208201905092915050565b600082825260208201905092915050565b600081905092915050565b6000613b9c82613d10565b9150613ba783613d10565b9250827fffffffffffffffffffffffffffffffffffffffffffffffffffffffffffffffff03821115613bdc57613bdb613e39565b5b828201905092915050565b6000613bf282613d10565b9150613bfd83613d10565b925082613c0d57613c0c613e68565b5b828204905092915050565b6000613c2382613d10565b9150613c2e83613d10565b9250817fffffffffffffffffffffffffffffffffffffffffffffffffffffffffffffffff0483118215151615613c6757613c66613e39565b5b828202905092915050565b6000613c7d82613d10565b9150613c8883613d10565b925082821015613c9b57613c9a613e39565b5b828203905092915050565b6000613cb182613cf0565b9050919050565b60008115159050919050565b60007fffffffff0000000000000000000000000000000000000000000000000000000082169050919050565b600073ffffffffffffffffffffffffffffffffffffffff82169050919050565b6000819050919050565b82818337600083830152505050565b60005b83811015613d47578082015181840152602081019050613d2c565b83811115613d56576000848401525b50505050565b60006002820490506001821680613d7457607f821691505b60208210811415613d8857613d87613e97565b5b50919050565b613d9782613ef5565b810181811067ffffffffffffffff82111715613db657613db5613ec6565b5b80604052505050565b6000613dca82613d10565b91507fffffffffffffffffffffffffffffffffffffffffffffffffffffffffffffffff821415613dfd57613dfc613e39565b5b600182019050919050565b6000613e1382613d10565b9150613e1e83613d10565b925082613e2e57613e2d613e68565b5b828206905092915050565b7f4e487b7100000000000000000000000000000000000000000000000000000000600052601160045260246000fd5b7f4e487b7100000000000000000000000000000000000000000000000000000000600052601260045260246000fd5b7f4e487b7100000000000000000000000000000000000000000000000000000000600052602260045260246000fd5b7f4e487b7100000000000000000000000000000000000000000000000000000000600052604160045260246000fd5b6000601f19601f8301169050919050565b7f70726573616c654e6f7465206d696e74206e6f74206163746976650000000000600082015250565b7f4f776e61626c653a206e6577206f776e657220697320746865207a65726f206160008201527f6464726573730000000000000000000000000000000000000000000000000000602082015250565b7f496e76616c6964206d696e746572206164647265737300000000000000000000600082015250565b7f65786365656473206d6178207065722061646472657373000000000000000000600082015250565b7f5468652063616c6c657220697320616e6f7468657220636f6e74726163740000600082015250565b7f4d757374206d696e74206d6f7265207468616e203020746f6b656e7300000000600082015250565b7f72656163686564206d617820737570706c790000000000000000000000000000600082015250565b7f4f776e61626c653a2063616c6c6572206973206e6f7420746865206f776e6572600082015250565b7f66726565206d696e74206e6f7420616374697665000000000000000000000000600082015250565b7f7075626c69632073616c6520686173206e6f7420626567756e20796574000000600082015250565b7f496e636f72726563742066756e64730000000000000000000000000000000000600082015250565b7f65786365656473206d617820706572207472616e73616374696f6e0000000000600082015250565b7f5265656e7472616e637947756172643a207265656e7472616e742063616c6c00600082015250565b61414a81613ca6565b811461415557600080fd5b50565b61416181613cb8565b811461416c57600080fd5b50565b61417881613cc4565b811461418357600080fd5b50565b61418f81613d10565b811461419a57600080fd5b5056fea2646970667358221220fa0515546c1c1fff491d92455f28d93e6b1e97b5b72f178c4986788d805d35a364736f6c63430008040033697066733a2f2f516d6143753244705a79676a4b313643374673587641504a364c7359345433444177346478314b726e524a5673662f",
	"linkReferences": {},
	"deployedLinkReferences": {}
}